{"abi":[{"type":"function","name":"activeAuctions","inputs":[{"name":"","type":"address","internalType":"address"},{"name":"","type":"uint256","internalType":"uint256"}],"outputs":[{"name":"","type":"address","internalType":"address"}],"stateMutability":"view"},{"type":"function","name":"allAuctions","inputs":[{"name":"","type":"uint256","internalType":"uint256"}],"outputs":[{"name":"","type":"address","internalType":"address"}],"stateMutability":"view"},{"type":"function","name":"createAuction","inputs":[{"name":"_nft","type":"address","internalType":"address"},{"name":"_tokenId","type":"uint256","internalType":"uint256"},{"name":"_duration","type":"uint256","internalType":"uint256"},{"name":"_minBidIncrement","type":"uint256","internalType":"uint256"}],"outputs":[{"name":"","type":"address","internalType":"address"}],"stateMutability":"nonpayable"},{"type":"event","name":"AuctionCreated","inputs":[{"name":"auctionAddress","type":"address","indexed":true,"internalType":"address"},{"name":"creator","type":"address","indexed":true,"internalType":"address"},{"name":"nft","type":"address","indexed":true,"internalType":"address"},{"name":"tokenId","type":"uint256","indexed":false,"internalType":"uint256"},{"name":"duration","type":"uint256","indexed":false,"internalType":"uint256"},{"name":"minBidIncrement","type":"uint256","indexed":false,"internalType":"uint256"}],"anonymous":false}],"bytecode":{"object":"0x6080604052348015600e575f5ffd5b50612d748061001c5f395ff3fe608060405234801561000f575f5ffd5b506004361061003f575f3560e01c8063165c58811461004357806361beb1d7146100735780637ce0fb2c146100a3575b5f5ffd5b61005d6004803603810190610058919061041e565b6100d3565b60405161006a9190610488565b60405180910390f35b61008d600480360381019061008891906104cb565b61010d565b60405161009a9190610488565b60405180910390f35b6100bd60048036038101906100b8919061052f565b61039d565b6040516100ca9190610488565b60405180910390f35b5f81815481106100e1575f80fd5b905f5260205f20015f915054906101000a900473ffffffffffffffffffffffffffffffffffffffff1681565b5f5f73ffffffffffffffffffffffffffffffffffffffff1660015f8773ffffffffffffffffffffffffffffffffffffffff1673ffffffffffffffffffffffffffffffffffffffff1681526020019081526020015f205f8681526020019081526020015f205f9054906101000a900473ffffffffffffffffffffffffffffffffffffffff1673ffffffffffffffffffffffffffffffffffffffff16146101e7576040517f08c379a00000000000000000000000000000000000000000000000000000000081526004016101de906105ed565b60405180910390fd5b5f32868686866040516101f9906103da565b61020795949392919061061a565b604051809103905ff080158015610220573d5f5f3e3d5ffd5b5090505f8190505f81908060018154018082558091505060019003905f5260205f20015f9091909190916101000a81548173ffffffffffffffffffffffffffffffffffffffff021916908373ffffffffffffffffffffffffffffffffffffffff1602179055508060015f8973ffffffffffffffffffffffffffffffffffffffff1673ffffffffffffffffffffffffffffffffffffffff1681526020019081526020015f205f8881526020019081526020015f205f6101000a81548173ffffffffffffffffffffffffffffffffffffffff021916908373ffffffffffffffffffffffffffffffffffffffff1602179055508673ffffffffffffffffffffffffffffffffffffffff163273ffffffffffffffffffffffffffffffffffffffff168273ffffffffffffffffffffffffffffffffffffffff167f4cbd4364540ca3a23c9b2864788cebf4a010674eb304d04a04578850ee34e2aa8989896040516103889392919061066b565b60405180910390a48092505050949350505050565b6001602052815f5260405f20602052805f5260405f205f915091509054906101000a900473ffffffffffffffffffffffffffffffffffffffff1681565b61269e806106a183390190565b5f5ffd5b5f819050919050565b6103fd816103eb565b8114610407575f5ffd5b50565b5f81359050610418816103f4565b92915050565b5f60208284031215610433576104326103e7565b5b5f6104408482850161040a565b91505092915050565b5f73ffffffffffffffffffffffffffffffffffffffff82169050919050565b5f61047282610449565b9050919050565b61048281610468565b82525050565b5f60208201905061049b5f830184610479565b92915050565b6104aa81610468565b81146104b4575f5ffd5b50565b5f813590506104c5816104a1565b92915050565b5f5f5f5f608085870312156104e3576104e26103e7565b5b5f6104f0878288016104b7565b94505060206105018782880161040a565b93505060406105128782880161040a565b92505060606105238782880161040a565b91505092959194509250565b5f5f60408385031215610545576105446103e7565b5b5f610552858286016104b7565b92505060206105638582860161040a565b9150509250929050565b5f82825260208201905092915050565b7f41756374696f6e20616c72656164792065786973747320666f722074686973205f8201527f4e46540000000000000000000000000000000000000000000000000000000000602082015250565b5f6105d760238361056d565b91506105e28261057d565b604082019050919050565b5f6020820190508181035f830152610604816105cb565b9050919050565b610614816103eb565b82525050565b5f60a08201905061062d5f830188610479565b61063a6020830187610479565b610647604083018661060b565b610654606083018561060b565b610661608083018461060b565b9695505050505050565b5f60608201905061067e5f83018661060b565b61068b602083018561060b565b610698604083018461060b565b94935050505056fe610100604052348015610010575f5ffd5b5060405161269e38038061269e83398181016040528101906100329190610295565b845f73ffffffffffffffffffffffffffffffffffffffff168173ffffffffffffffffffffffffffffffffffffffff16036100a3575f6040517f1e4fbdf700000000000000000000000000000000000000000000000000000000815260040161009a919061031b565b60405180910390fd5b6100b28161014360201b60201c565b50600180819055508373ffffffffffffffffffffffffffffffffffffffff1660808173ffffffffffffffffffffffffffffffffffffffff16815250508260a081815250508473ffffffffffffffffffffffffffffffffffffffff1660e08173ffffffffffffffffffffffffffffffffffffffff16815250508160c08181525050806002819055505050505050610334565b5f5f5f9054906101000a900473ffffffffffffffffffffffffffffffffffffffff169050815f5f6101000a81548173ffffffffffffffffffffffffffffffffffffffff021916908373ffffffffffffffffffffffffffffffffffffffff1602179055508173ffffffffffffffffffffffffffffffffffffffff168173ffffffffffffffffffffffffffffffffffffffff167f8be0079c531659141344cd1fd0a4f28419497f9722a3daafe3b4186f6b6457e060405160405180910390a35050565b5f5ffd5b5f73ffffffffffffffffffffffffffffffffffffffff82169050919050565b5f61023182610208565b9050919050565b61024181610227565b811461024b575f5ffd5b50565b5f8151905061025c81610238565b92915050565b5f819050919050565b61027481610262565b811461027e575f5ffd5b50565b5f8151905061028f8161026b565b92915050565b5f5f5f5f5f60a086880312156102ae576102ad610204565b5b5f6102bb8882890161024e565b95505060206102cc8882890161024e565b94505060406102dd88828901610281565b93505060606102ee88828901610281565b92505060806102ff88828901610281565b9150509295509295909350565b61031581610227565b82525050565b5f60208201905061032e5f83018461030c565b92915050565b60805160a05160c05160e0516122ce6103d05f395f818161047901528181610b8d01528181610e710152818161114901526111b401525f818161049d0152610e0301525f8181610bae01528181610d1701528181610e9301528181610f3c015281816110da01526111d501525f818161098701528181610b5001528181610cdb01528181610e350152818161107b015261117701526122ce5ff3fe608060405260043610610122575f3560e01c8063715018a61161009f578063be9a655511610063578063be9a6555146103db578063c6bc5182146103f1578063d57bde791461041b578063efbe1c1c14610445578063f2fde38b1461044f57610162565b8063715018a6146103315780637cc3ae8c146103475780638da5cb5b146103715780638fa8b7901461039b57806391f90157146103b157610162565b80631f2698ab116100e65780631f2698ab14610261578063335b115e1461028b5780633ccfd60b146102b557806347ccca02146102cb57806362ea82db146102f557610162565b806308551a531461019d5780630fb5a6b4146101c757806312fa6feb146101f1578063150b7a021461021b5780631998aeef1461025757610162565b36610162576040517f08c379a0000000000000000000000000000000000000000000000000000000008152600401610159906117fb565b60405180910390fd5b6040517f08c379a000000000000000000000000000000000000000000000000000000000815260040161019490611889565b60405180910390fd5b3480156101a8575f5ffd5b506101b1610477565b6040516101be91906118e6565b60405180910390f35b3480156101d2575f5ffd5b506101db61049b565b6040516101e89190611917565b60405180910390f35b3480156101fc575f5ffd5b506102056104bf565b604051610212919061194a565b60405180910390f35b348015610226575f5ffd5b50610241600480360381019061023c9190611a31565b6104d2565b60405161024e9190611aef565b60405180910390f35b61025f6104e6565b005b34801561026c575f5ffd5b50610275610834565b604051610282919061194a565b60405180910390f35b348015610296575f5ffd5b5061029f610846565b6040516102ac9190611917565b60405180910390f35b3480156102c0575f5ffd5b506102c961084c565b005b3480156102d6575f5ffd5b506102df610985565b6040516102ec9190611b63565b60405180910390f35b348015610300575f5ffd5b5061031b60048036038101906103169190611b7c565b6109a9565b6040516103289190611917565b60405180910390f35b34801561033c575f5ffd5b506103456109be565b005b348015610352575f5ffd5b5061035b6109d1565b6040516103689190611917565b60405180910390f35b34801561037c575f5ffd5b506103856109d7565b6040516103929190611bb6565b60405180910390f35b3480156103a6575f5ffd5b506103af6109fe565b005b3480156103bc575f5ffd5b506103c5610c46565b6040516103d29190611bb6565b60405180910390f35b3480156103e6575f5ffd5b506103ef610c6b565b005b3480156103fc575f5ffd5b50610405610f3a565b6040516104129190611917565b60405180910390f35b348015610426575f5ffd5b5061042f610f5e565b60405161043c9190611917565b60405180910390f35b61044d610f64565b005b34801561045a575f5ffd5b5061047560048036038101906104709190611b7c565b6112b3565b005b7f000000000000000000000000000000000000000000000000000000000000000081565b7f000000000000000000000000000000000000000000000000000000000000000081565b600360019054906101000a900460ff1681565b5f63150b7a0260e01b905095945050505050565b60035f9054906101000a900460ff16610534576040517f08c379a000000000000000000000000000000000000000000000000000000000815260040161052b90611c19565b60405180910390fd5b6004544210610578576040517f08c379a000000000000000000000000000000000000000000000000000000000815260040161056f90611ca7565b60405180910390fd5b6002546006546105889190611cf2565b3410156105ca576040517f08c379a00000000000000000000000000000000000000000000000000000000081526004016105c190611d6f565b60405180910390fd5b5f73ffffffffffffffffffffffffffffffffffffffff1660055f9054906101000a900473ffffffffffffffffffffffffffffffffffffffff1673ffffffffffffffffffffffffffffffffffffffff161461075c5760065460075f60055f9054906101000a900473ffffffffffffffffffffffffffffffffffffffff1673ffffffffffffffffffffffffffffffffffffffff1673ffffffffffffffffffffffffffffffffffffffff1681526020019081526020015f205f82825461068d9190611cf2565b925050819055506106f46040518060400160405280601081526020017f48696768657374206269646465723a200000000000000000000000000000000081525060055f9054906101000a900473ffffffffffffffffffffffffffffffffffffffff16611337565b61075b60075f60055f9054906101000a900473ffffffffffffffffffffffffffffffffffffffff1673ffffffffffffffffffffffffffffffffffffffff1673ffffffffffffffffffffffffffffffffffffffff1681526020019081526020015f20546113d3565b5b346006819055506107a46040518060400160405280600e81526020017f486967686573742062696420697300000000000000000000000000000000000081525060065461146c565b3360055f6101000a81548173ffffffffffffffffffffffffffffffffffffffff021916908373ffffffffffffffffffffffffffffffffffffffff1602179055503373ffffffffffffffffffffffffffffffffffffffff167f3fabff0a9c3ecd6814702e247fa9733e5d0aa69e3a38590f92cb18f623a2254d3460405161082a9190611917565b60405180910390a2565b60035f9054906101000a900460ff1681565b60025481565b610854611508565b5f60075f3373ffffffffffffffffffffffffffffffffffffffff1673ffffffffffffffffffffffffffffffffffffffff1681526020019081526020015f2054905061089e816113d3565b5f81116108e0576040517f08c379a00000000000000000000000000000000000000000000000000000000081526004016108d790611dd7565b60405180910390fd5b5f60075f3373ffffffffffffffffffffffffffffffffffffffff1673ffffffffffffffffffffffffffffffffffffffff1681526020019081526020015f208190555061092c338261154e565b3373ffffffffffffffffffffffffffffffffffffffff167f7fcf532c15f0a6db0bd6d0e038bea71d30d808c7d98cb3bf7268a95bf5081b65826040516109729190611917565b60405180910390a2506109836115fb565b565b7f000000000000000000000000000000000000000000000000000000000000000081565b6007602052805f5260405f205f915090505481565b6109c6611604565b6109cf5f61168b565b565b60045481565b5f5f5f9054906101000a900473ffffffffffffffffffffffffffffffffffffffff16905090565b610a06611604565b60035f9054906101000a900460ff16610a54576040517f08c379a0000000000000000000000000000000000000000000000000000000008152600401610a4b90611c19565b60405180910390fd5b600360019054906101000a900460ff1615610aa4576040517f08c379a0000000000000000000000000000000000000000000000000000000008152600401610a9b90611e3f565b60405180910390fd5b5f73ffffffffffffffffffffffffffffffffffffffff1660055f9054906101000a900473ffffffffffffffffffffffffffffffffffffffff1673ffffffffffffffffffffffffffffffffffffffff1614610b33576040517f08c379a0000000000000000000000000000000000000000000000000000000008152600401610b2a90611ecd565b60405180910390fd5b6001600360016101000a81548160ff0219169083151502179055507f000000000000000000000000000000000000000000000000000000000000000073ffffffffffffffffffffffffffffffffffffffff166342842e0e307f00000000000000000000000000000000000000000000000000000000000000007f00000000000000000000000000000000000000000000000000000000000000006040518463ffffffff1660e01b8152600401610beb93929190611f0b565b5f604051808303815f87803b158015610c02575f5ffd5b505af1158015610c14573d5f5f3e3d5ffd5b505050507fa5fb31e47bd1eca58bf14a3312d5e6aeafdc4ee787c8ed348c15c2b092324d9360405160405180910390a1565b60055f9054906101000a900473ffffffffffffffffffffffffffffffffffffffff1681565b610c73611604565b60035f9054906101000a900460ff1615610cc2576040517f08c379a0000000000000000000000000000000000000000000000000000000008152600401610cb990611f8a565b60405180910390fd5b3073ffffffffffffffffffffffffffffffffffffffff167f000000000000000000000000000000000000000000000000000000000000000073ffffffffffffffffffffffffffffffffffffffff1663081812fc7f00000000000000000000000000000000000000000000000000000000000000006040518263ffffffff1660e01b8152600401610d529190611917565b602060405180830381865afa158015610d6d573d5f5f3e3d5ffd5b505050506040513d601f19601f82011682018060405250810190610d919190611fbc565b73ffffffffffffffffffffffffffffffffffffffff1614610de7576040517f08c379a0000000000000000000000000000000000000000000000000000000008152600401610dde90612057565b60405180910390fd5b600160035f6101000a81548160ff0219169083151502179055507f000000000000000000000000000000000000000000000000000000000000000042610e2d9190611cf2565b6004819055507f000000000000000000000000000000000000000000000000000000000000000073ffffffffffffffffffffffffffffffffffffffff166342842e0e7f0000000000000000000000000000000000000000000000000000000000000000307f00000000000000000000000000000000000000000000000000000000000000006040518463ffffffff1660e01b8152600401610ed093929190612075565b5f604051808303815f87803b158015610ee7575f5ffd5b505af1158015610ef9573d5f5f3e3d5ffd5b505050507ff8910119ddbef5440c54532457dfe8250a10ed39e583292818f44724b9e1344c42600454604051610f309291906120aa565b60405180910390a1565b7f000000000000000000000000000000000000000000000000000000000000000081565b60065481565b610f6c611604565b60035f9054906101000a900460ff16610fba576040517f08c379a0000000000000000000000000000000000000000000000000000000008152600401610fb190611c19565b60405180910390fd5b600360019054906101000a900460ff161561100a576040517f08c379a000000000000000000000000000000000000000000000000000000000815260040161100190611e3f565b60405180910390fd5b6001600360016101000a81548160ff0219169083151502179055505f73ffffffffffffffffffffffffffffffffffffffff1660055f9054906101000a900473ffffffffffffffffffffffffffffffffffffffff1673ffffffffffffffffffffffffffffffffffffffff1614611175577f000000000000000000000000000000000000000000000000000000000000000073ffffffffffffffffffffffffffffffffffffffff166342842e0e3060055f9054906101000a900473ffffffffffffffffffffffffffffffffffffffff167f00000000000000000000000000000000000000000000000000000000000000006040518463ffffffff1660e01b8152600401611117939291906120d1565b5f604051808303815f87803b15801561112e575f5ffd5b505af1158015611140573d5f5f3e3d5ffd5b505050506111707f000000000000000000000000000000000000000000000000000000000000000060065461154e565b611240565b7f000000000000000000000000000000000000000000000000000000000000000073ffffffffffffffffffffffffffffffffffffffff166342842e0e307f00000000000000000000000000000000000000000000000000000000000000007f00000000000000000000000000000000000000000000000000000000000000006040518463ffffffff1660e01b815260040161121293929190611f0b565b5f604051808303815f87803b158015611229575f5ffd5b505af115801561123b573d5f5f3e3d5ffd5b505050505b60055f9054906101000a900473ffffffffffffffffffffffffffffffffffffffff1673ffffffffffffffffffffffffffffffffffffffff167fdaec4582d5d9595688c8c98545fdd1c696d41c6aeaeb636737e84ed2f5c00eda6006546040516112a99190611917565b60405180910390a2565b6112bb611604565b5f73ffffffffffffffffffffffffffffffffffffffff168173ffffffffffffffffffffffffffffffffffffffff160361132b575f6040517f1e4fbdf70000000000000000000000000000000000000000000000000000000081526004016113229190611bb6565b60405180910390fd5b6113348161168b565b50565b6113cf828260405160240161134d929190612166565b6040516020818303038152906040527f319af333000000000000000000000000000000000000000000000000000000007bffffffffffffffffffffffffffffffffffffffffffffffffffffffff19166020820180517bffffffffffffffffffffffffffffffffffffffffffffffffffffffff838183161783525050505061174c565b5050565b611469816040516024016113e79190611917565b6040516020818303038152906040527ff82c50f1000000000000000000000000000000000000000000000000000000007bffffffffffffffffffffffffffffffffffffffffffffffffffffffff19166020820180517bffffffffffffffffffffffffffffffffffffffffffffffffffffffff838183161783525050505061174c565b50565b6115048282604051602401611482929190612194565b6040516020818303038152906040527fb60e72cc000000000000000000000000000000000000000000000000000000007bffffffffffffffffffffffffffffffffffffffffffffffffffffffff19166020820180517bffffffffffffffffffffffffffffffffffffffffffffffffffffffff838183161783525050505061174c565b5050565b600260015403611544576040517f3ee5aeb500000000000000000000000000000000000000000000000000000000815260040160405180910390fd5b6002600181905550565b5f8273ffffffffffffffffffffffffffffffffffffffff1682604051611573906121ef565b5f6040518083038185875af1925050503d805f81146115ad576040519150601f19603f3d011682016040523d82523d5f602084013e6115b2565b606091505b50509050806115f6576040517f08c379a00000000000000000000000000000000000000000000000000000000081526004016115ed9061224d565b60405180910390fd5b505050565b60018081905550565b61160c611766565b73ffffffffffffffffffffffffffffffffffffffff1661162a6109d7565b73ffffffffffffffffffffffffffffffffffffffff16146116895761164d611766565b6040517f118cdaa70000000000000000000000000000000000000000000000000000000081526004016116809190611bb6565b60405180910390fd5b565b5f5f5f9054906101000a900473ffffffffffffffffffffffffffffffffffffffff169050815f5f6101000a81548173ffffffffffffffffffffffffffffffffffffffff021916908373ffffffffffffffffffffffffffffffffffffffff1602179055508173ffffffffffffffffffffffffffffffffffffffff168173ffffffffffffffffffffffffffffffffffffffff167f8be0079c531659141344cd1fd0a4f28419497f9722a3daafe3b4186f6b6457e060405160405180910390a35050565b6117638161175b61176d61178c565b63ffffffff16565b50565b5f33905090565b5f6a636f6e736f6c652e6c6f6790505f5f835160208501845afa505050565b611797819050919050565b61179f61226b565b565b5f82825260208201905092915050565b7f446972656374207061796d656e7473206e6f7420616c6c6f7765642e000000005f82015250565b5f6117e5601c836117a1565b91506117f0826117b1565b602082019050919050565b5f6020820190508181035f830152611812816117d9565b9050919050565b7f5468697320636f6e74726163742061636365707473204554482062696473206f5f8201527f6e6c792e00000000000000000000000000000000000000000000000000000000602082015250565b5f6118736024836117a1565b915061187e82611819565b604082019050919050565b5f6020820190508181035f8301526118a081611867565b9050919050565b5f73ffffffffffffffffffffffffffffffffffffffff82169050919050565b5f6118d0826118a7565b9050919050565b6118e0816118c6565b82525050565b5f6020820190506118f95f8301846118d7565b92915050565b5f819050919050565b611911816118ff565b82525050565b5f60208201905061192a5f830184611908565b92915050565b5f8115159050919050565b61194481611930565b82525050565b5f60208201905061195d5f83018461193b565b92915050565b5f5ffd5b5f5ffd5b5f611975826118a7565b9050919050565b6119858161196b565b811461198f575f5ffd5b50565b5f813590506119a08161197c565b92915050565b6119af816118ff565b81146119b9575f5ffd5b50565b5f813590506119ca816119a6565b92915050565b5f5ffd5b5f5ffd5b5f5ffd5b5f5f83601f8401126119f1576119f06119d0565b5b8235905067ffffffffffffffff811115611a0e57611a0d6119d4565b5b602083019150836001820283011115611a2a57611a296119d8565b5b9250929050565b5f5f5f5f5f60808688031215611a4a57611a49611963565b5b5f611a5788828901611992565b9550506020611a6888828901611992565b9450506040611a79888289016119bc565b935050606086013567ffffffffffffffff811115611a9a57611a99611967565b5b611aa6888289016119dc565b92509250509295509295909350565b5f7fffffffff0000000000000000000000000000000000000000000000000000000082169050919050565b611ae981611ab5565b82525050565b5f602082019050611b025f830184611ae0565b92915050565b5f819050919050565b5f611b2b611b26611b21846118a7565b611b08565b6118a7565b9050919050565b5f611b3c82611b11565b9050919050565b5f611b4d82611b32565b9050919050565b611b5d81611b43565b82525050565b5f602082019050611b765f830184611b54565b92915050565b5f60208284031215611b9157611b90611963565b5b5f611b9e84828501611992565b91505092915050565b611bb08161196b565b82525050565b5f602082019050611bc95f830184611ba7565b92915050565b7f41756374696f6e20686173206e6f742073746172746564207965742e000000005f82015250565b5f611c03601c836117a1565b9150611c0e82611bcf565b602082019050919050565b5f6020820190508181035f830152611c3081611bf7565b9050919050565b7f41756374696f6e2074696d652068617320616c726561647920656c61707365645f8201527f2c206e6f2062696473206172656120616c6c6f7765642e000000000000000000602082015250565b5f611c916037836117a1565b9150611c9c82611c37565b604082019050919050565b5f6020820190508181035f830152611cbe81611c85565b9050919050565b7f4e487b71000000000000000000000000000000000000000000000000000000005f52601160045260245ffd5b5f611cfc826118ff565b9150611d07836118ff565b9250828201905080821115611d1f57611d1e611cc5565b5b92915050565b7f596f75722062696420697320746f6f6c206c6f772e00000000000000000000005f82015250565b5f611d596015836117a1565b9150611d6482611d25565b602082019050919050565b5f6020820190508181035f830152611d8681611d4d565b9050919050565b7f5468657265206973206e6f2062616c616e636520746f2077697468647261772e5f82015250565b5f611dc16020836117a1565b9150611dcc82611d8d565b602082019050919050565b5f6020820190508181035f830152611dee81611db5565b9050919050565b7f41756374696f6e2068617320616c726561647920656e6465642e0000000000005f82015250565b5f611e29601a836117a1565b9150611e3482611df5565b602082019050919050565b5f6020820190508181035f830152611e5681611e1d565b9050919050565b7f54686572652061726520616c726561647920626964732c20796f752063616e6e5f8201527f6f742063616e63656c2061756374696f6e2e0000000000000000000000000000602082015250565b5f611eb76032836117a1565b9150611ec282611e5d565b604082019050919050565b5f6020820190508181035f830152611ee481611eab565b9050919050565b5f611ef582611b32565b9050919050565b611f0581611eeb565b82525050565b5f606082019050611f1e5f830186611ba7565b611f2b6020830185611efc565b611f386040830184611908565b949350505050565b7f41756374696f6e2068617320616c726561647920737461727465642e000000005f82015250565b5f611f74601c836117a1565b9150611f7f82611f40565b602082019050919050565b5f6020820190508181035f830152611fa181611f68565b9050919050565b5f81519050611fb68161197c565b92915050565b5f60208284031215611fd157611fd0611963565b5b5f611fde84828501611fa8565b91505092915050565b7f41756374696f6e20636f6e7472616374206973206e6f7420617070726f7665645f8201527f20746f206d616e6167652074686973204e46542e000000000000000000000000602082015250565b5f6120416034836117a1565b915061204c82611fe7565b604082019050919050565b5f6020820190508181035f83015261206e81612035565b9050919050565b5f6060820190506120885f830186611efc565b6120956020830185611ba7565b6120a26040830184611908565b949350505050565b5f6040820190506120bd5f830185611908565b6120ca6020830184611908565b9392505050565b5f6060820190506120e45f830186611ba7565b6120f16020830185611ba7565b6120fe6040830184611908565b949350505050565b5f81519050919050565b8281835e5f83830152505050565b5f601f19601f8301169050919050565b5f61213882612106565b61214281856117a1565b9350612152818560208601612110565b61215b8161211e565b840191505092915050565b5f6040820190508181035f83015261217e818561212e565b905061218d6020830184611ba7565b9392505050565b5f6040820190508181035f8301526121ac818561212e565b90506121bb6020830184611908565b9392505050565b5f81905092915050565b50565b5f6121da5f836121c2565b91506121e5826121cc565b5f82019050919050565b5f6121f9826121cf565b9150819050919050565b7f455448207472616e73666572206661696c65642e0000000000000000000000005f82015250565b5f6122376014836117a1565b915061224282612203565b602082019050919050565b5f6020820190508181035f8301526122648161222b565b9050919050565b7f4e487b71000000000000000000000000000000000000000000000000000000005f52605160045260245ffdfea2646970667358221220353fe3fa3d24527aa4697153fbc77a54e3d0b7070477fdb1f19332a434427dc364736f6c634300081c0033a264697066735822122053c12f321b4dafc683f7f6337e4013472ad76b6d5ec8146d5b7563c726ea623c64736f6c634300081c0033","linkReferences":{}},"methodIdentifiers":{"activeAuctions(address,uint256)":"7ce0fb2c","allAuctions(uint256)":"165c5881","createAuction(address,uint256,uint256,uint256)":"61beb1d7"},"id":34}