{"abi":[{"type":"constructor","inputs":[{"name":"_name","type":"string","internalType":"string"},{"name":"_symbol","type":"string","internalType":"string"},{"name":"_URI","type":"string","internalType":"string"}],"stateMutability":"nonpayable"},{"type":"function","name":"addAddressesToWhitelist","inputs":[{"name":"addresses","type":"address[]","internalType":"address[]"}],"outputs":[],"stateMutability":"nonpayable"},{"type":"function","name":"approve","inputs":[{"name":"to","type":"address","internalType":"address"},{"name":"tokenId","type":"uint256","internalType":"uint256"}],"outputs":[],"stateMutability":"nonpayable"},{"type":"function","name":"balanceOf","inputs":[{"name":"owner","type":"address","internalType":"address"}],"outputs":[{"name":"","type":"uint256","internalType":"uint256"}],"stateMutability":"view"},{"type":"function","name":"baseURI","inputs":[],"outputs":[{"name":"","type":"string","internalType":"string"}],"stateMutability":"view"},{"type":"function","name":"getApproved","inputs":[{"name":"tokenId","type":"uint256","internalType":"uint256"}],"outputs":[{"name":"","type":"address","internalType":"address"}],"stateMutability":"view"},{"type":"function","name":"isApprovedForAll","inputs":[{"name":"owner","type":"address","internalType":"address"},{"name":"operator","type":"address","internalType":"address"}],"outputs":[{"name":"","type":"bool","internalType":"bool"}],"stateMutability":"view"},{"type":"function","name":"isPrivateSaleActive","inputs":[],"outputs":[{"name":"","type":"bool","internalType":"bool"}],"stateMutability":"view"},{"type":"function","name":"isPublicSaleActive","inputs":[],"outputs":[{"name":"","type":"bool","internalType":"bool"}],"stateMutability":"view"},{"type":"function","name":"maxSupply","inputs":[],"outputs":[{"name":"","type":"uint256","internalType":"uint256"}],"stateMutability":"view"},{"type":"function","name":"mintPrivateSale","inputs":[],"outputs":[],"stateMutability":"payable"},{"type":"function","name":"mintPublicSale","inputs":[],"outputs":[],"stateMutability":"payable"},{"type":"function","name":"name","inputs":[],"outputs":[{"name":"","type":"string","internalType":"string"}],"stateMutability":"view"},{"type":"function","name":"owner","inputs":[],"outputs":[{"name":"","type":"address","internalType":"address"}],"stateMutability":"view"},{"type":"function","name":"ownerOf","inputs":[{"name":"tokenId","type":"uint256","internalType":"uint256"}],"outputs":[{"name":"","type":"address","internalType":"address"}],"stateMutability":"view"},{"type":"function","name":"privateSalePrice","inputs":[],"outputs":[{"name":"","type":"uint256","internalType":"uint256"}],"stateMutability":"view"},{"type":"function","name":"publicSalePrice","inputs":[],"outputs":[{"name":"","type":"uint256","internalType":"uint256"}],"stateMutability":"view"},{"type":"function","name":"removeAddressesFromWhitelist","inputs":[{"name":"addresses","type":"address[]","internalType":"address[]"}],"outputs":[],"stateMutability":"nonpayable"},{"type":"function","name":"renounceOwnership","inputs":[],"outputs":[],"stateMutability":"nonpayable"},{"type":"function","name":"safeTransferFrom","inputs":[{"name":"from","type":"address","internalType":"address"},{"name":"to","type":"address","internalType":"address"},{"name":"tokenId","type":"uint256","internalType":"uint256"}],"outputs":[],"stateMutability":"nonpayable"},{"type":"function","name":"safeTransferFrom","inputs":[{"name":"from","type":"address","internalType":"address"},{"name":"to","type":"address","internalType":"address"},{"name":"tokenId","type":"uint256","internalType":"uint256"},{"name":"data","type":"bytes","internalType":"bytes"}],"outputs":[],"stateMutability":"nonpayable"},{"type":"function","name":"setApprovalForAll","inputs":[{"name":"operator","type":"address","internalType":"address"},{"name":"approved","type":"bool","internalType":"bool"}],"outputs":[],"stateMutability":"nonpayable"},{"type":"function","name":"setBaseURI","inputs":[{"name":"newURI","type":"string","internalType":"string"}],"outputs":[],"stateMutability":"nonpayable"},{"type":"function","name":"setPrices","inputs":[{"name":"_privateSalePrice","type":"uint256","internalType":"uint256"},{"name":"_publicSalePrice","type":"uint256","internalType":"uint256"}],"outputs":[],"stateMutability":"nonpayable"},{"type":"function","name":"setPrivateSalePrice","inputs":[{"name":"_privateSalePrice","type":"uint256","internalType":"uint256"}],"outputs":[],"stateMutability":"nonpayable"},{"type":"function","name":"setPublicSalePrice","inputs":[{"name":"_publicSalePrice","type":"uint256","internalType":"uint256"}],"outputs":[],"stateMutability":"nonpayable"},{"type":"function","name":"supportsInterface","inputs":[{"name":"interfaceId","type":"bytes4","internalType":"bytes4"}],"outputs":[{"name":"","type":"bool","internalType":"bool"}],"stateMutability":"view"},{"type":"function","name":"symbol","inputs":[],"outputs":[{"name":"","type":"string","internalType":"string"}],"stateMutability":"view"},{"type":"function","name":"togglePrivateSale","inputs":[],"outputs":[],"stateMutability":"nonpayable"},{"type":"function","name":"togglePublicSale","inputs":[],"outputs":[],"stateMutability":"nonpayable"},{"type":"function","name":"tokenURI","inputs":[{"name":"tokenId","type":"uint256","internalType":"uint256"}],"outputs":[{"name":"","type":"string","internalType":"string"}],"stateMutability":"view"},{"type":"function","name":"totalMinted","inputs":[],"outputs":[{"name":"","type":"uint256","internalType":"uint256"}],"stateMutability":"view"},{"type":"function","name":"transferFrom","inputs":[{"name":"from","type":"address","internalType":"address"},{"name":"to","type":"address","internalType":"address"},{"name":"tokenId","type":"uint256","internalType":"uint256"}],"outputs":[],"stateMutability":"nonpayable"},{"type":"function","name":"transferOwnership","inputs":[{"name":"newOwner","type":"address","internalType":"address"}],"outputs":[],"stateMutability":"nonpayable"},{"type":"function","name":"whitelist","inputs":[{"name":"","type":"address","internalType":"address"}],"outputs":[{"name":"","type":"bool","internalType":"bool"}],"stateMutability":"view"},{"type":"function","name":"withdraw","inputs":[],"outputs":[],"stateMutability":"nonpayable"},{"type":"event","name":"Approval","inputs":[{"name":"owner","type":"address","indexed":true,"internalType":"address"},{"name":"approved","type":"address","indexed":true,"internalType":"address"},{"name":"tokenId","type":"uint256","indexed":true,"internalType":"uint256"}],"anonymous":false},{"type":"event","name":"ApprovalForAll","inputs":[{"name":"owner","type":"address","indexed":true,"internalType":"address"},{"name":"operator","type":"address","indexed":true,"internalType":"address"},{"name":"approved","type":"bool","indexed":false,"internalType":"bool"}],"anonymous":false},{"type":"event","name":"OwnershipTransferred","inputs":[{"name":"previousOwner","type":"address","indexed":true,"internalType":"address"},{"name":"newOwner","type":"address","indexed":true,"internalType":"address"}],"anonymous":false},{"type":"event","name":"Transfer","inputs":[{"name":"from","type":"address","indexed":true,"internalType":"address"},{"name":"to","type":"address","indexed":true,"internalType":"address"},{"name":"tokenId","type":"uint256","indexed":true,"internalType":"uint256"}],"anonymous":false},{"type":"error","name":"ERC721IncorrectOwner","inputs":[{"name":"sender","type":"address","internalType":"address"},{"name":"tokenId","type":"uint256","internalType":"uint256"},{"name":"owner","type":"address","internalType":"address"}]},{"type":"error","name":"ERC721InsufficientApproval","inputs":[{"name":"operator","type":"address","internalType":"address"},{"name":"tokenId","type":"uint256","internalType":"uint256"}]},{"type":"error","name":"ERC721InvalidApprover","inputs":[{"name":"approver","type":"address","internalType":"address"}]},{"type":"error","name":"ERC721InvalidOperator","inputs":[{"name":"operator","type":"address","internalType":"address"}]},{"type":"error","name":"ERC721InvalidOwner","inputs":[{"name":"owner","type":"address","internalType":"address"}]},{"type":"error","name":"ERC721InvalidReceiver","inputs":[{"name":"receiver","type":"address","internalType":"address"}]},{"type":"error","name":"ERC721InvalidSender","inputs":[{"name":"sender","type":"address","internalType":"address"}]},{"type":"error","name":"ERC721NonexistentToken","inputs":[{"name":"tokenId","type":"uint256","internalType":"uint256"}]},{"type":"error","name":"OwnableInvalidOwner","inputs":[{"name":"owner","type":"address","internalType":"address"}]},{"type":"error","name":"OwnableUnauthorizedAccount","inputs":[{"name":"account","type":"address","internalType":"address"}]},{"type":"error","name":"ReentrancyGuardReentrantCall","inputs":[]}],"bytecode":{"object":"0x60806040526127106008556601c6bf52634000600a5566038d7ea4c68000600b555f600c5f6101000a81548160ff0219169083151502179055505f600c60016101000a81548160ff02191690831515021790555034801561005e575f5ffd5b50604051613ab8380380613ab883398181016040528101906100809190610354565b338383815f90816100919190610608565b5080600190816100a19190610608565b5050505f73ffffffffffffffffffffffffffffffffffffffff168173ffffffffffffffffffffffffffffffffffffffff1603610114575f6040517f1e4fbdf700000000000000000000000000000000000000000000000000000000815260040161010b9190610716565b60405180910390fd5b6101238161014460201b60201c565b50600160078190555080600e908161013b9190610608565b5050505061072f565b5f60065f9054906101000a900473ffffffffffffffffffffffffffffffffffffffff1690508160065f6101000a81548173ffffffffffffffffffffffffffffffffffffffff021916908373ffffffffffffffffffffffffffffffffffffffff1602179055508173ffffffffffffffffffffffffffffffffffffffff168173ffffffffffffffffffffffffffffffffffffffff167f8be0079c531659141344cd1fd0a4f28419497f9722a3daafe3b4186f6b6457e060405160405180910390a35050565b5f604051905090565b5f5ffd5b5f5ffd5b5f5ffd5b5f5ffd5b5f601f19601f8301169050919050565b7f4e487b71000000000000000000000000000000000000000000000000000000005f52604160045260245ffd5b61026682610220565b810181811067ffffffffffffffff8211171561028557610284610230565b5b80604052505050565b5f610297610207565b90506102a3828261025d565b919050565b5f67ffffffffffffffff8211156102c2576102c1610230565b5b6102cb82610220565b9050602081019050919050565b8281835e5f83830152505050565b5f6102f86102f3846102a8565b61028e565b9050828152602081018484840111156103145761031361021c565b5b61031f8482856102d8565b509392505050565b5f82601f83011261033b5761033a610218565b5b815161034b8482602086016102e6565b91505092915050565b5f5f5f6060848603121561036b5761036a610210565b5b5f84015167ffffffffffffffff81111561038857610387610214565b5b61039486828701610327565b935050602084015167ffffffffffffffff8111156103b5576103b4610214565b5b6103c186828701610327565b925050604084015167ffffffffffffffff8111156103e2576103e1610214565b5b6103ee86828701610327565b9150509250925092565b5f81519050919050565b7f4e487b71000000000000000000000000000000000000000000000000000000005f52602260045260245ffd5b5f600282049050600182168061044657607f821691505b60208210810361045957610458610402565b5b50919050565b5f819050815f5260205f209050919050565b5f6020601f8301049050919050565b5f82821b905092915050565b5f600883026104bb7fffffffffffffffffffffffffffffffffffffffffffffffffffffffffffffffff82610480565b6104c58683610480565b95508019841693508086168417925050509392505050565b5f819050919050565b5f819050919050565b5f6105096105046104ff846104dd565b6104e6565b6104dd565b9050919050565b5f819050919050565b610522836104ef565b61053661052e82610510565b84845461048c565b825550505050565b5f5f905090565b61054d61053e565b610558818484610519565b505050565b5b8181101561057b576105705f82610545565b60018101905061055e565b5050565b601f8211156105c0576105918161045f565b61059a84610471565b810160208510156105a9578190505b6105bd6105b585610471565b83018261055d565b50505b505050565b5f82821c905092915050565b5f6105e05f19846008026105c5565b1980831691505092915050565b5f6105f883836105d1565b9150826002028217905092915050565b610611826103f8565b67ffffffffffffffff81111561062a57610629610230565b5b610634825461042f565b61063f82828561057f565b5f60209050601f831160018114610670575f841561065e578287015190505b61066885826105ed565b8655506106cf565b601f19841661067e8661045f565b5f5b828110156106a557848901518255600182019150602085019450602081019050610680565b868310156106c257848901516106be601f8916826105d1565b8355505b6001600288020188555050505b505050505050565b5f73ffffffffffffffffffffffffffffffffffffffff82169050919050565b5f610700826106d7565b9050919050565b610710816106f6565b82525050565b5f6020820190506107295f830184610707565b92915050565b61337c8061073c5f395ff3fe608060405260043610610203575f3560e01c80638da5cb5b11610117578063d5abeb011161009f578063e2ec6ec31161006e578063e2ec6ec3146106db578063e574ff4214610703578063e985e9c51461070d578063f2fde38b14610749578063f560d4151461077157610203565b8063d5abeb011461065b578063d8a9e1e914610685578063dfe5dd68146106af578063e222c7f9146106c557610203565b80639b6860c8116100e65780639b6860c81461057b578063a22cb465146105a5578063a2309ff8146105cd578063b88d4fde146105f7578063c87b56dd1461061f57610203565b80638da5cb5b146104e15780638ed938a71461050b57806395d89b41146105155780639b19251a1461053f57610203565b80633ccfd60b1161019a5780636c0360eb116101695780636c0360eb1461041557806370a082311461043f578063715018a61461047b578063791a2519146104915780637bc36e04146104b957610203565b80633ccfd60b1461037357806342842e0e1461038957806355f804b3146103b15780636352211e146103d957610203565b8063095ea7b3116101d6578063095ea7b3146102d15780631e84c413146102f957806323b872dd1461032357806324953eaa1461034b57610203565b806301ffc9a71461020757806305fefda71461024357806306fdde031461026b578063081812fc14610295575b5f5ffd5b348015610212575f5ffd5b5061022d600480360381019061022891906123c5565b61079b565b60405161023a919061240a565b60405180910390f35b34801561024e575f5ffd5b5061026960048036038101906102649190612456565b61087c565b005b348015610276575f5ffd5b5061027f61089a565b60405161028c9190612504565b60405180910390f35b3480156102a0575f5ffd5b506102bb60048036038101906102b69190612524565b610929565b6040516102c8919061258e565b60405180910390f35b3480156102dc575f5ffd5b506102f760048036038101906102f291906125d1565b610944565b005b348015610304575f5ffd5b5061030d61095a565b60405161031a919061240a565b60405180910390f35b34801561032e575f5ffd5b506103496004803603810190610344919061260f565b61096d565b005b348015610356575f5ffd5b50610371600480360381019061036c91906126c0565b610a6c565b005b34801561037e575f5ffd5b50610387610b88565b005b348015610394575f5ffd5b506103af60048036038101906103aa919061260f565b610bed565b005b3480156103bc575f5ffd5b506103d760048036038101906103d29190612833565b610c0c565b005b3480156103e4575f5ffd5b506103ff60048036038101906103fa9190612524565b610c27565b60405161040c919061258e565b60405180910390f35b348015610420575f5ffd5b50610429610c38565b6040516104369190612504565b60405180910390f35b34801561044a575f5ffd5b506104656004803603810190610460919061287a565b610cc4565b60405161047291906128b4565b60405180910390f35b348015610486575f5ffd5b5061048f610d7a565b005b34801561049c575f5ffd5b506104b760048036038101906104b29190612524565b610d8d565b005b3480156104c4575f5ffd5b506104df60048036038101906104da9190612524565b610d9f565b005b3480156104ec575f5ffd5b506104f5610db1565b604051610502919061258e565b60405180910390f35b610513610dd9565b005b348015610520575f5ffd5b50610529610f6b565b6040516105369190612504565b60405180910390f35b34801561054a575f5ffd5b506105656004803603810190610560919061287a565b610ffb565b604051610572919061240a565b60405180910390f35b348015610586575f5ffd5b5061058f611018565b60405161059c91906128b4565b60405180910390f35b3480156105b0575f5ffd5b506105cb60048036038101906105c691906128f7565b61101e565b005b3480156105d8575f5ffd5b506105e1611034565b6040516105ee91906128b4565b60405180910390f35b348015610602575f5ffd5b5061061d600480360381019061061891906129d3565b61103a565b005b34801561062a575f5ffd5b5061064560048036038101906106409190612524565b61105f565b6040516106529190612504565b60405180910390f35b348015610666575f5ffd5b5061066f6110c5565b60405161067c91906128b4565b60405180910390f35b348015610690575f5ffd5b506106996110cb565b6040516106a6919061240a565b60405180910390f35b3480156106ba575f5ffd5b506106c36110dd565b005b3480156106d0575f5ffd5b506106d961110f565b005b3480156106e6575f5ffd5b5061070160048036038101906106fc91906126c0565b611143565b005b61070b6111e9565b005b348015610718575f5ffd5b50610733600480360381019061072e9190612a53565b6112f3565b604051610740919061240a565b60405180910390f35b348015610754575f5ffd5b5061076f600480360381019061076a919061287a565b611381565b005b34801561077c575f5ffd5b50610785611405565b60405161079291906128b4565b60405180910390f35b5f7f80ac58cd000000000000000000000000000000000000000000000000000000007bffffffffffffffffffffffffffffffffffffffffffffffffffffffff1916827bffffffffffffffffffffffffffffffffffffffffffffffffffffffff1916148061086557507f5b5e139f000000000000000000000000000000000000000000000000000000007bffffffffffffffffffffffffffffffffffffffffffffffffffffffff1916827bffffffffffffffffffffffffffffffffffffffffffffffffffffffff1916145b8061087557506108748261140b565b5b9050919050565b610884611474565b61088d82610d9f565b61089681610d8d565b5050565b60605f80546108a890612abe565b80601f01602080910402602001604051908101604052809291908181526020018280546108d490612abe565b801561091f5780601f106108f65761010080835404028352916020019161091f565b820191905f5260205f20905b81548152906001019060200180831161090257829003601f168201915b5050505050905090565b5f610933826114fb565b5061093d82611581565b9050919050565b61095682826109516115ba565b6115c1565b5050565b600c60019054906101000a900460ff1681565b5f73ffffffffffffffffffffffffffffffffffffffff168273ffffffffffffffffffffffffffffffffffffffff16036109dd575f6040517f64a0ae920000000000000000000000000000000000000000000000000000000081526004016109d4919061258e565b60405180910390fd5b5f6109f083836109eb6115ba565b6115d3565b90508373ffffffffffffffffffffffffffffffffffffffff168173ffffffffffffffffffffffffffffffffffffffff1614610a66578382826040517f64283d7b000000000000000000000000000000000000000000000000000000008152600401610a5d93929190612aee565b60405180910390fd5b50505050565b610a74611474565b5f5f90505b82829050811015610b8357600d5f848484818110610a9a57610a99612b23565b5b9050602002016020810190610aaf919061287a565b73ffffffffffffffffffffffffffffffffffffffff1673ffffffffffffffffffffffffffffffffffffffff1681526020019081526020015f205f9054906101000a900460ff1615610b76575f600d5f858585818110610b1157610b10612b23565b5b9050602002016020810190610b26919061287a565b73ffffffffffffffffffffffffffffffffffffffff1673ffffffffffffffffffffffffffffffffffffffff1681526020019081526020015f205f6101000a81548160ff0219169083151502179055505b8080600101915050610a79565b505050565b610b90611474565b610b986117de565b610ba0610db1565b73ffffffffffffffffffffffffffffffffffffffff166108fc4790811502906040515f60405180830381858888f19350505050158015610be2573d5f5f3e3d5ffd5b50610beb611824565b565b610c0783838360405180602001604052805f81525061103a565b505050565b610c14611474565b80600e9081610c239190612cf0565b5050565b5f610c31826114fb565b9050919050565b600e8054610c4590612abe565b80601f0160208091040260200160405190810160405280929190818152602001828054610c7190612abe565b8015610cbc5780601f10610c9357610100808354040283529160200191610cbc565b820191905f5260205f20905b815481529060010190602001808311610c9f57829003601f168201915b505050505081565b5f5f73ffffffffffffffffffffffffffffffffffffffff168273ffffffffffffffffffffffffffffffffffffffff1603610d35575f6040517f89c62b64000000000000000000000000000000000000000000000000000000008152600401610d2c919061258e565b60405180910390fd5b60035f8373ffffffffffffffffffffffffffffffffffffffff1673ffffffffffffffffffffffffffffffffffffffff1681526020019081526020015f20549050919050565b610d82611474565b610d8b5f61182e565b565b610d95611474565b80600b8190555050565b610da7611474565b80600a8190555050565b5f60065f9054906101000a900473ffffffffffffffffffffffffffffffffffffffff16905090565b600c5f9054906101000a900460ff16610e27576040517f08c379a0000000000000000000000000000000000000000000000000000000008152600401610e1e90612e2f565b60405180910390fd5b600d5f3373ffffffffffffffffffffffffffffffffffffffff1673ffffffffffffffffffffffffffffffffffffffff1681526020019081526020015f205f9054906101000a900460ff16610eb0576040517f08c379a0000000000000000000000000000000000000000000000000000000008152600401610ea790612e97565b60405180910390fd5b600a543414610ef4576040517f08c379a0000000000000000000000000000000000000000000000000000000008152600401610eeb90612f25565b60405180910390fd5b60085460095410610f3a576040517f08c379a0000000000000000000000000000000000000000000000000000000008152600401610f3190612fd9565b60405180910390fd5b610f52336001600954610f4d9190613024565b6118f1565b60095f815480929190610f6490613057565b9190505550565b606060018054610f7a90612abe565b80601f0160208091040260200160405190810160405280929190818152602001828054610fa690612abe565b8015610ff15780601f10610fc857610100808354040283529160200191610ff1565b820191905f5260205f20905b815481529060010190602001808311610fd457829003601f168201915b5050505050905090565b600d602052805f5260405f205f915054906101000a900460ff1681565b600b5481565b6110306110296115ba565b838361190e565b5050565b60095481565b61104584848461096d565b6110596110506115ba565b85858585611a77565b50505050565b606061106a826114fb565b505f611074611c23565b90505f8151116110925760405180602001604052805f8152506110bd565b8061109c84611cb3565b6040516020016110ad9291906130d8565b6040516020818303038152906040525b915050919050565b60085481565b600c5f9054906101000a900460ff1681565b6110e5611474565b600c5f9054906101000a900460ff1615600c5f6101000a81548160ff021916908315150217905550565b611117611474565b600c60019054906101000a900460ff1615600c60016101000a81548160ff021916908315150217905550565b61114b611474565b5f5f90505b828290508110156111e4576001600d5f85858581811061117357611172612b23565b5b9050602002016020810190611188919061287a565b73ffffffffffffffffffffffffffffffffffffffff1673ffffffffffffffffffffffffffffffffffffffff1681526020019081526020015f205f6101000a81548160ff0219169083151502179055508080600101915050611150565b505050565b600c60019054906101000a900460ff16611238576040517f08c379a000000000000000000000000000000000000000000000000000000000815260040161122f90613145565b60405180910390fd5b600b54341461127c576040517f08c379a000000000000000000000000000000000000000000000000000000000815260040161127390612f25565b60405180910390fd5b600854600954106112c2576040517f08c379a00000000000000000000000000000000000000000000000000000000081526004016112b9906131f9565b60405180910390fd5b6112da3360016009546112d59190613024565b6118f1565b60095f8154809291906112ec90613057565b9190505550565b5f60055f8473ffffffffffffffffffffffffffffffffffffffff1673ffffffffffffffffffffffffffffffffffffffff1681526020019081526020015f205f8373ffffffffffffffffffffffffffffffffffffffff1673ffffffffffffffffffffffffffffffffffffffff1681526020019081526020015f205f9054906101000a900460ff16905092915050565b611389611474565b5f73ffffffffffffffffffffffffffffffffffffffff168173ffffffffffffffffffffffffffffffffffffffff16036113f9575f6040517f1e4fbdf70000000000000000000000000000000000000000000000000000000081526004016113f0919061258e565b60405180910390fd5b6114028161182e565b50565b600a5481565b5f7f01ffc9a7000000000000000000000000000000000000000000000000000000007bffffffffffffffffffffffffffffffffffffffffffffffffffffffff1916827bffffffffffffffffffffffffffffffffffffffffffffffffffffffff1916149050919050565b61147c6115ba565b73ffffffffffffffffffffffffffffffffffffffff1661149a610db1565b73ffffffffffffffffffffffffffffffffffffffff16146114f9576114bd6115ba565b6040517f118cdaa70000000000000000000000000000000000000000000000000000000081526004016114f0919061258e565b60405180910390fd5b565b5f5f61150683611d7d565b90505f73ffffffffffffffffffffffffffffffffffffffff168173ffffffffffffffffffffffffffffffffffffffff160361157857826040517f7e27328900000000000000000000000000000000000000000000000000000000815260040161156f91906128b4565b60405180910390fd5b80915050919050565b5f60045f8381526020019081526020015f205f9054906101000a900473ffffffffffffffffffffffffffffffffffffffff169050919050565b5f33905090565b6115ce8383836001611db6565b505050565b5f5f6115de84611d7d565b90505f73ffffffffffffffffffffffffffffffffffffffff168373ffffffffffffffffffffffffffffffffffffffff161461161f5761161e818486611f75565b5b5f73ffffffffffffffffffffffffffffffffffffffff168173ffffffffffffffffffffffffffffffffffffffff16146116aa5761165e5f855f5f611db6565b600160035f8373ffffffffffffffffffffffffffffffffffffffff1673ffffffffffffffffffffffffffffffffffffffff1681526020019081526020015f205f82825403925050819055505b5f73ffffffffffffffffffffffffffffffffffffffff168573ffffffffffffffffffffffffffffffffffffffff161461172957600160035f8773ffffffffffffffffffffffffffffffffffffffff1673ffffffffffffffffffffffffffffffffffffffff1681526020019081526020015f205f82825401925050819055505b8460025f8681526020019081526020015f205f6101000a81548173ffffffffffffffffffffffffffffffffffffffff021916908373ffffffffffffffffffffffffffffffffffffffff160217905550838573ffffffffffffffffffffffffffffffffffffffff168273ffffffffffffffffffffffffffffffffffffffff167fddf252ad1be2c89b69c2b068fc378daa952ba7f163c4a11628f55a4df523b3ef60405160405180910390a4809150509392505050565b60026007540361181a576040517f3ee5aeb500000000000000000000000000000000000000000000000000000000815260040160405180910390fd5b6002600781905550565b6001600781905550565b5f60065f9054906101000a900473ffffffffffffffffffffffffffffffffffffffff1690508160065f6101000a81548173ffffffffffffffffffffffffffffffffffffffff021916908373ffffffffffffffffffffffffffffffffffffffff1602179055508173ffffffffffffffffffffffffffffffffffffffff168173ffffffffffffffffffffffffffffffffffffffff167f8be0079c531659141344cd1fd0a4f28419497f9722a3daafe3b4186f6b6457e060405160405180910390a35050565b61190a828260405180602001604052805f815250612038565b5050565b5f73ffffffffffffffffffffffffffffffffffffffff168273ffffffffffffffffffffffffffffffffffffffff160361197e57816040517f5b08ba18000000000000000000000000000000000000000000000000000000008152600401611975919061258e565b60405180910390fd5b8060055f8573ffffffffffffffffffffffffffffffffffffffff1673ffffffffffffffffffffffffffffffffffffffff1681526020019081526020015f205f8473ffffffffffffffffffffffffffffffffffffffff1673ffffffffffffffffffffffffffffffffffffffff1681526020019081526020015f205f6101000a81548160ff0219169083151502179055508173ffffffffffffffffffffffffffffffffffffffff168373ffffffffffffffffffffffffffffffffffffffff167f17307eab39ab6107e8899845ad3d59bd9653f200f220920489ca2b5937696c3183604051611a6a919061240a565b60405180910390a3505050565b5f8373ffffffffffffffffffffffffffffffffffffffff163b1115611c1c578273ffffffffffffffffffffffffffffffffffffffff1663150b7a02868685856040518563ffffffff1660e01b8152600401611ad59493929190613269565b6020604051808303815f875af1925050508015611b1057506040513d601f19601f82011682018060405250810190611b0d91906132c7565b60015b611b91573d805f8114611b3e576040519150601f19603f3d011682016040523d82523d5f602084013e611b43565b606091505b505f815103611b8957836040517f64a0ae92000000000000000000000000000000000000000000000000000000008152600401611b80919061258e565b60405180910390fd5b805181602001fd5b63150b7a0260e01b7bffffffffffffffffffffffffffffffffffffffffffffffffffffffff1916817bffffffffffffffffffffffffffffffffffffffffffffffffffffffff191614611c1a57836040517f64a0ae92000000000000000000000000000000000000000000000000000000008152600401611c11919061258e565b60405180910390fd5b505b5050505050565b6060600e8054611c3290612abe565b80601f0160208091040260200160405190810160405280929190818152602001828054611c5e90612abe565b8015611ca95780601f10611c8057610100808354040283529160200191611ca9565b820191905f5260205f20905b815481529060010190602001808311611c8c57829003601f168201915b5050505050905090565b60605f6001611cc18461205b565b0190505f8167ffffffffffffffff811115611cdf57611cde61270f565b5b6040519080825280601f01601f191660200182016040528015611d115781602001600182028036833780820191505090505b5090505f82602001820190505b600115611d72578080600190039150507f3031323334353637383961626364656600000000000000000000000000000000600a86061a8153600a8581611d6757611d666132f2565b5b0494505f8503611d1e575b819350505050919050565b5f60025f8381526020019081526020015f205f9054906101000a900473ffffffffffffffffffffffffffffffffffffffff169050919050565b8080611dee57505f73ffffffffffffffffffffffffffffffffffffffff168273ffffffffffffffffffffffffffffffffffffffff1614155b15611f20575f611dfd846114fb565b90505f73ffffffffffffffffffffffffffffffffffffffff168373ffffffffffffffffffffffffffffffffffffffff1614158015611e6757508273ffffffffffffffffffffffffffffffffffffffff168173ffffffffffffffffffffffffffffffffffffffff1614155b8015611e7a5750611e7881846112f3565b155b15611ebc57826040517fa9fbf51f000000000000000000000000000000000000000000000000000000008152600401611eb3919061258e565b60405180910390fd5b8115611f1e57838573ffffffffffffffffffffffffffffffffffffffff168273ffffffffffffffffffffffffffffffffffffffff167f8c5be1e5ebec7d5bd14f71427d1e84f3dd0314c0f7b2291e5b200ac8c7c3b92560405160405180910390a45b505b8360045f8581526020019081526020015f205f6101000a81548173ffffffffffffffffffffffffffffffffffffffff021916908373ffffffffffffffffffffffffffffffffffffffff16021790555050505050565b611f808383836121ac565b612033575f73ffffffffffffffffffffffffffffffffffffffff168373ffffffffffffffffffffffffffffffffffffffff1603611ff457806040517f7e273289000000000000000000000000000000000000000000000000000000008152600401611feb91906128b4565b60405180910390fd5b81816040517f177e802f00000000000000000000000000000000000000000000000000000000815260040161202a92919061331f565b60405180910390fd5b505050565b612042838361226c565b61205661204d6115ba565b5f858585611a77565b505050565b5f5f5f90507a184f03e93ff9f4daa797ed6e38ed64bf6a1f01000000000000000083106120b7577a184f03e93ff9f4daa797ed6e38ed64bf6a1f01000000000000000083816120ad576120ac6132f2565b5b0492506040810190505b6d04ee2d6d415b85acef810000000083106120f4576d04ee2d6d415b85acef810000000083816120ea576120e96132f2565b5b0492506020810190505b662386f26fc10000831061212357662386f26fc100008381612119576121186132f2565b5b0492506010810190505b6305f5e100831061214c576305f5e1008381612142576121416132f2565b5b0492506008810190505b6127108310612171576127108381612167576121666132f2565b5b0492506004810190505b60648310612194576064838161218a576121896132f2565b5b0492506002810190505b600a83106121a3576001810190505b80915050919050565b5f5f73ffffffffffffffffffffffffffffffffffffffff168373ffffffffffffffffffffffffffffffffffffffff161415801561226357508273ffffffffffffffffffffffffffffffffffffffff168473ffffffffffffffffffffffffffffffffffffffff161480612224575061222384846112f3565b5b8061226257508273ffffffffffffffffffffffffffffffffffffffff1661224a83611581565b73ffffffffffffffffffffffffffffffffffffffff16145b5b90509392505050565b5f73ffffffffffffffffffffffffffffffffffffffff168273ffffffffffffffffffffffffffffffffffffffff16036122dc575f6040517f64a0ae920000000000000000000000000000000000000000000000000000000081526004016122d3919061258e565b60405180910390fd5b5f6122e883835f6115d3565b90505f73ffffffffffffffffffffffffffffffffffffffff168173ffffffffffffffffffffffffffffffffffffffff161461235a575f6040517f73c6ac6e000000000000000000000000000000000000000000000000000000008152600401612351919061258e565b60405180910390fd5b505050565b5f604051905090565b5f5ffd5b5f5ffd5b5f7fffffffff0000000000000000000000000000000000000000000000000000000082169050919050565b6123a481612370565b81146123ae575f5ffd5b50565b5f813590506123bf8161239b565b92915050565b5f602082840312156123da576123d9612368565b5b5f6123e7848285016123b1565b91505092915050565b5f8115159050919050565b612404816123f0565b82525050565b5f60208201905061241d5f8301846123fb565b92915050565b5f819050919050565b61243581612423565b811461243f575f5ffd5b50565b5f813590506124508161242c565b92915050565b5f5f6040838503121561246c5761246b612368565b5b5f61247985828601612442565b925050602061248a85828601612442565b9150509250929050565b5f81519050919050565b5f82825260208201905092915050565b8281835e5f83830152505050565b5f601f19601f8301169050919050565b5f6124d682612494565b6124e0818561249e565b93506124f08185602086016124ae565b6124f9816124bc565b840191505092915050565b5f6020820190508181035f83015261251c81846124cc565b905092915050565b5f6020828403121561253957612538612368565b5b5f61254684828501612442565b91505092915050565b5f73ffffffffffffffffffffffffffffffffffffffff82169050919050565b5f6125788261254f565b9050919050565b6125888161256e565b82525050565b5f6020820190506125a15f83018461257f565b92915050565b6125b08161256e565b81146125ba575f5ffd5b50565b5f813590506125cb816125a7565b92915050565b5f5f604083850312156125e7576125e6612368565b5b5f6125f4858286016125bd565b925050602061260585828601612442565b9150509250929050565b5f5f5f6060848603121561262657612625612368565b5b5f612633868287016125bd565b9350506020612644868287016125bd565b925050604061265586828701612442565b9150509250925092565b5f5ffd5b5f5ffd5b5f5ffd5b5f5f83601f8401126126805761267f61265f565b5b8235905067ffffffffffffffff81111561269d5761269c612663565b5b6020830191508360208202830111156126b9576126b8612667565b5b9250929050565b5f5f602083850312156126d6576126d5612368565b5b5f83013567ffffffffffffffff8111156126f3576126f261236c565b5b6126ff8582860161266b565b92509250509250929050565b5f5ffd5b7f4e487b71000000000000000000000000000000000000000000000000000000005f52604160045260245ffd5b612745826124bc565b810181811067ffffffffffffffff821117156127645761276361270f565b5b80604052505050565b5f61277661235f565b9050612782828261273c565b919050565b5f67ffffffffffffffff8211156127a1576127a061270f565b5b6127aa826124bc565b9050602081019050919050565b828183375f83830152505050565b5f6127d76127d284612787565b61276d565b9050828152602081018484840111156127f3576127f261270b565b5b6127fe8482856127b7565b509392505050565b5f82601f83011261281a5761281961265f565b5b813561282a8482602086016127c5565b91505092915050565b5f6020828403121561284857612847612368565b5b5f82013567ffffffffffffffff8111156128655761286461236c565b5b61287184828501612806565b91505092915050565b5f6020828403121561288f5761288e612368565b5b5f61289c848285016125bd565b91505092915050565b6128ae81612423565b82525050565b5f6020820190506128c75f8301846128a5565b92915050565b6128d6816123f0565b81146128e0575f5ffd5b50565b5f813590506128f1816128cd565b92915050565b5f5f6040838503121561290d5761290c612368565b5b5f61291a858286016125bd565b925050602061292b858286016128e3565b9150509250929050565b5f67ffffffffffffffff82111561294f5761294e61270f565b5b612958826124bc565b9050602081019050919050565b5f61297761297284612935565b61276d565b9050828152602081018484840111156129935761299261270b565b5b61299e8482856127b7565b509392505050565b5f82601f8301126129ba576129b961265f565b5b81356129ca848260208601612965565b91505092915050565b5f5f5f5f608085870312156129eb576129ea612368565b5b5f6129f8878288016125bd565b9450506020612a09878288016125bd565b9350506040612a1a87828801612442565b925050606085013567ffffffffffffffff811115612a3b57612a3a61236c565b5b612a47878288016129a6565b91505092959194509250565b5f5f60408385031215612a6957612a68612368565b5b5f612a76858286016125bd565b9250506020612a87858286016125bd565b9150509250929050565b7f4e487b71000000000000000000000000000000000000000000000000000000005f52602260045260245ffd5b5f6002820490506001821680612ad557607f821691505b602082108103612ae857612ae7612a91565b5b50919050565b5f606082019050612b015f83018661257f565b612b0e60208301856128a5565b612b1b604083018461257f565b949350505050565b7f4e487b71000000000000000000000000000000000000000000000000000000005f52603260045260245ffd5b5f819050815f5260205f209050919050565b5f6020601f8301049050919050565b5f82821b905092915050565b5f60088302612bac7fffffffffffffffffffffffffffffffffffffffffffffffffffffffffffffffff82612b71565b612bb68683612b71565b95508019841693508086168417925050509392505050565b5f819050919050565b5f612bf1612bec612be784612423565b612bce565b612423565b9050919050565b5f819050919050565b612c0a83612bd7565b612c1e612c1682612bf8565b848454612b7d565b825550505050565b5f5f905090565b612c35612c26565b612c40818484612c01565b505050565b5b81811015612c6357612c585f82612c2d565b600181019050612c46565b5050565b601f821115612ca857612c7981612b50565b612c8284612b62565b81016020851015612c91578190505b612ca5612c9d85612b62565b830182612c45565b50505b505050565b5f82821c905092915050565b5f612cc85f1984600802612cad565b1980831691505092915050565b5f612ce08383612cb9565b9150826002028217905092915050565b612cf982612494565b67ffffffffffffffff811115612d1257612d1161270f565b5b612d1c8254612abe565b612d27828285612c67565b5f60209050601f831160018114612d58575f8415612d46578287015190505b612d508582612cd5565b865550612db7565b601f198416612d6686612b50565b5f5b82811015612d8d57848901518255600182019150602085019450602081019050612d68565b86831015612daa5784890151612da6601f891682612cb9565b8355505b6001600288020188555050505b505050505050565b7f507269766174652073616c65206973207374696c6c206e6f74206163746976655f8201527f2e00000000000000000000000000000000000000000000000000000000000000602082015250565b5f612e1960218361249e565b9150612e2482612dbf565b604082019050919050565b5f6020820190508181035f830152612e4681612e0d565b9050919050565b7f53656e646572206973206e6f742077686974656c69737465642e0000000000005f82015250565b5f612e81601a8361249e565b9150612e8c82612e4d565b602082019050919050565b5f6020820190508181035f830152612eae81612e75565b9050919050565b7f546865726520697320612066697865642045544820616d6f756e742e205468655f8201527f2070726f7669646564206f6e6520697320696e636f72726563742e0000000000602082015250565b5f612f0f603b8361249e565b9150612f1a82612eb5565b604082019050919050565b5f6020820190508181035f830152612f3c81612f03565b9050919050565b7f4d617820737570706c7920686173206265656e20616c726561647920726561635f8201527f6865642e20596f7520617265206e6f7420616c6c6f77656420746f206d696e2060208201527f616e796d6f72652e000000000000000000000000000000000000000000000000604082015250565b5f612fc360488361249e565b9150612fce82612f43565b606082019050919050565b5f6020820190508181035f830152612ff081612fb7565b9050919050565b7f4e487b71000000000000000000000000000000000000000000000000000000005f52601160045260245ffd5b5f61302e82612423565b915061303983612423565b925082820190508082111561305157613050612ff7565b5b92915050565b5f61306182612423565b91507fffffffffffffffffffffffffffffffffffffffffffffffffffffffffffffffff820361309357613092612ff7565b5b600182019050919050565b5f81905092915050565b5f6130b282612494565b6130bc818561309e565b93506130cc8185602086016124ae565b80840191505092915050565b5f6130e382856130a8565b91506130ef82846130a8565b91508190509392505050565b7f5075626c69632073616c65206973207374696c6c206e6f74206163746976652e5f82015250565b5f61312f60208361249e565b915061313a826130fb565b602082019050919050565b5f6020820190508181035f83015261315c81613123565b9050919050565b7f4d617820737570706c7920686173206265656e20616c726561647920726561635f8201527f6865642e20596f7520617265206e6f7420616c6c6f77656420746f206d696e6460208201527f20616e796d6f72652e0000000000000000000000000000000000000000000000604082015250565b5f6131e360498361249e565b91506131ee82613163565b606082019050919050565b5f6020820190508181035f830152613210816131d7565b9050919050565b5f81519050919050565b5f82825260208201905092915050565b5f61323b82613217565b6132458185613221565b93506132558185602086016124ae565b61325e816124bc565b840191505092915050565b5f60808201905061327c5f83018761257f565b613289602083018661257f565b61329660408301856128a5565b81810360608301526132a88184613231565b905095945050505050565b5f815190506132c18161239b565b92915050565b5f602082840312156132dc576132db612368565b5b5f6132e9848285016132b3565b91505092915050565b7f4e487b71000000000000000000000000000000000000000000000000000000005f52601260045260245ffd5b5f6040820190506133325f83018561257f565b61333f60208301846128a5565b939250505056fea26469706673582212200e308ede9eb1944318add6384c17c0a531444209655783db3bc1101daaac063664736f6c634300081c0033","linkReferences":{}},"methodIdentifiers":{"addAddressesToWhitelist(address[])":"e2ec6ec3","approve(address,uint256)":"095ea7b3","balanceOf(address)":"70a08231","baseURI()":"6c0360eb","getApproved(uint256)":"081812fc","isApprovedForAll(address,address)":"e985e9c5","isPrivateSaleActive()":"d8a9e1e9","isPublicSaleActive()":"1e84c413","maxSupply()":"d5abeb01","mintPrivateSale()":"8ed938a7","mintPublicSale()":"e574ff42","name()":"06fdde03","owner()":"8da5cb5b","ownerOf(uint256)":"6352211e","privateSalePrice()":"f560d415","publicSalePrice()":"9b6860c8","removeAddressesFromWhitelist(address[])":"24953eaa","renounceOwnership()":"715018a6","safeTransferFrom(address,address,uint256)":"42842e0e","safeTransferFrom(address,address,uint256,bytes)":"b88d4fde","setApprovalForAll(address,bool)":"a22cb465","setBaseURI(string)":"55f804b3","setPrices(uint256,uint256)":"05fefda7","setPrivateSalePrice(uint256)":"7bc36e04","setPublicSalePrice(uint256)":"791a2519","supportsInterface(bytes4)":"01ffc9a7","symbol()":"95d89b41","togglePrivateSale()":"dfe5dd68","togglePublicSale()":"e222c7f9","tokenURI(uint256)":"c87b56dd","totalMinted()":"a2309ff8","transferFrom(address,address,uint256)":"23b872dd","transferOwnership(address)":"f2fde38b","whitelist(address)":"9b19251a","withdraw()":"3ccfd60b"},"id":40}